:1000000002C1000030C100002EC100002CC1000060
:100010002AC1000028C1000026C1000024C1000040
:1000200022C1000020C100001EC100001CC1000050
:100030001AC1000018C1000016C1000014C1000060
:1000400012C1000010C100000EC100000CC1000070
:100050000AC1000008C1000006C1000004C500007C
:1000600002C1000000C10000FEC00000FCC0000092
:10007000FAC00000F8C00000F6C00000F4C00000A4
:10008000F2C00000F0C00000EEC00000ECC00000B4
:10009000EAC00000E8C00000E6C00000E4C00000C4
:1000A000E2C00000E0C00000DEC00000DCC00000D4
:1000B000DAC00000D8C00000D6C00000D4C00000E4
:1000C000D2C00000D0C00000CEC00000CCC00000F4
:1000D000CAC00000C8C00000C6C00000C4C0000004
:1000E000C2C0000000002100240027002A002D00CB
:1000F0003000330001010000040107010A01000083
:100100002200250028002B002E00310034000201BF
:100110000000050108010B0100000A0B02090C0D8B
:100120000E080703040100000000000000000000AA
:1001300000000000000000000000000000000000BF
:10014000000000001211100000000000000000007C
:10015000000000000000000000000000000000009F
:1001600020002300260029002C002F00320000016F
:10017000000003010601090105050505070508083A
:100180000808020202020A0A080804040404010121
:100190000101010101010303030303030303040736
:1001A00007070C0C0C0C0C0C0C0C020202020606CD
:1001B0000606060606060B0B0B0B0B0B0B0B0102C0
:1001C0001020200808102040102040800201020169
:1001D0000804020101020408102040808040201021
:1001E000080402018004020180402010080402017A
:1001F00008040201010204081020408001020408E2
:1002000010204080490C11241FBECFEFD1E2DEBF89
:10021000CDBF00E00CBF12E0A0E0B2E0EEEEFDE1E9
:1002200000E00BBF02C007900D92AE38B107D9F7BE
:1002300023E0AEE8B2E001C01D92A135B207E1F7BC
:1002400011E0C3E0D1E000E006C021970109802F52
:10025000FE010E94ED0EC230D10780E00807A9F729
:1002600091D40C94F50ECCCE96E0899FD001112448
:10027000A653BD4F90967C936E935F9791E09196B5
:100280009C939197E0913703F09138039091360356
:10029000992339F0309751F0811108C08091E6021E
:1002A0001994309719F05C968C91FACF0895AF921B
:1002B000BF92CF92DF92EF92FF920F931F93CF9353
:1002C000DF936C017B018B01040F151FEB015E01B5
:1002D000AE18BF08C017D10759F06991D601ED914A
:1002E000FC910190F081E02DC6011995892B79F7D9
:1002F000C501DF91CF911F910F91FF90EF90DF909B
:10030000CF90BF90AF9008958150823108F05AC0CD
:10031000E82FF0E08827E057FE4F8F4F0C94ED0E4A
:10032000B001B401A201A801AC01E201B701BD0115
:10033000C101C701CB01CF01D501D901E201DD0126
:10034000E301E701809180008F778093800008951A
:10035000809180008F7DF9CF80918000877FF5CFDD
:1003600084B58F7784BD089584B58F7DFBCF809150
:10037000B0008F778093B00008958091B0008F7D9A
:10038000F9CF809190008F778093900008958091AD
:1003900090008F7DF9CF80919000877FF5CF80917D
:1003A000A0008F778093A00008958091A0008F7D9A
:1003B000F9CF8091A000877FF5CF809120018F77C2
:1003C000809320010895809120018F7DF9CF809145
:1003D0002001877FF5CFCF93DF93282F30E0F901FD
:1003E000E85EFE4F8491F901E254FE4FD491F90189
:1003F000E858FE4FC491CC2399F0811185DFEC2F92
:10040000F0E0EE0FFF1FE25AFE4FA591B491EC9180
:10041000ED2381E090E009F480E0DF91CF91089531
:1004200080E090E0FACF862FD6CF1F93CF93DF9353
:10043000282F30E0F901E85EFE4F8491F901E25483
:10044000FE4FD491F901E858FE4FC491CC23A1F09E
:10045000162F811159DFEC2FF0E0EE0FFF1FE25055
:10046000FF4FA591B4918FB7F894EC91111108C08A
:10047000D095DE23DC938FBFDF91CF911F9108953C
:10048000DE2BF8CF862F642FD0CFCF93DF9390E071
:10049000FC01E254FE4F249188589E4FFC01849148
:1004A0008823C9F090E0880F991FFC01EC51FF4FA1
:1004B000A591B491FC01E250FF4FC591D491611117
:1004C0000DC09FB7F8948C91209582238C938881DE
:1004D000282328839FBFDF91CF910895623051F484
:1004E0009FB7F8943C91822F809583238C93E88169
:1004F0002E2BEFCF8FB7F894EC912E2B2C938FBF30
:10050000EACF862F642FC1CF90917B00977F909385
:100510007B008653806480937C0080917A008064A5
:1005200080937A0080917A0086FDFCCF80917800DC
:100530009091790008953FB7F8948091930290913B
:100540009402A0919502B091960226B5A89B05C091
:100550002F3F19F00196A11DB11D3FBFBA2FA92F42
:10056000982F8827BC01CD01620F711D811D911D3F
:1005700042E0660F771F881F991F4A95D1F70895AB
:100580008F929F92AF92BF92CF92DF92EF92FF92A3
:100590004B015C01D0DF6B017C01CDDF6C197D0963
:1005A0008E099F09683E734081059105B0F321E0F3
:1005B000821A9108A108B10888EEC80E83E0D81EFF
:1005C000E11CF11C81149104A104B10431F7FF90E6
:1005D000EF90DF90CF90BF90AF909F908F90089555
:1005E0002FB7F89460918F027091900280919102E0
:1005F000909192022FBF08950F931F93CF93DF9393
:10060000C82FD62F86E0C89FF0011124E653FD4F76
:1006100011A2878D90A181309105E1F058F08230D0
:100620009105D1F1039709F43CC0DF91CF911F915F
:100630000F9108956623C9F361E070E08C2F14DEFA
:10064000CFDF60932203709323038093240390935E
:100650002503EBCFC5DF00912203109123032091E6
:10066000240330912503AB01BC01401B510B620BED
:10067000730B8091340390913503B0E0A0E08417B0
:100680009507A607B70740F462E070E08C2FDF9172
:10069000CF911F910F91E8CD63E070E0D111C5CFEC
:1006A000F5CF70E060E0F2CF089590E080E008952B
:1006B0008F929F92AF92BF920F931F93CF93DF932E
:1006C000CDB7DEB7A1970FB6F894DEBF0FBECDBF92
:1006D00019A2423008F44AE08E010F5D1F4F842EAC
:1006E000912CB12CA12CA50194010E94AF0EE62FF4
:1006F000B901CA01EA303CF5E05DD801EE938D0105
:10070000232B242B252B79F790E080E0109761F0C4
:10071000FD0101900020E9F73197AF014A1B5B0B07
:10072000BD0189E393E0C3DDA1960FB6F894DEBF67
:100730000FBECDBFDF91CF911F910F91BF90AF90B2
:100740009F908F900895E95CD8CFFC010190002024
:10075000E9F73197AF01481B590BBC0189E393E0DE
:10076000A6CDCF93DF93EC0160E08E815EDE61E089
:100770008E815BDE60E08E8158DE8BE891E0019730
:10078000F1F7DF91CF910895CF92DF92EF92FF9230
:100790000F931F93CF93DF936C017C0187E0E80EEA
:1007A000F11CD0E0C0E0062F10E0B8010C2E02C012
:1007B000759567950A94E2F76170F70181917F0161
:1007C00034DE2196C430D10581F7C601DF91CF9187
:1007D0001F910F91FF90EF90DF90CF90C2CFCF92FB
:1007E000DF92EF92FF920F931F93CF93DF93EC0171
:1007F000F62E642F8C8119DE8D818F3F11F060E021
:1008000014DE0F2D10E08F8584FF23C06E0187E07A
:10081000C80ED11CF12CE12CB8010E2C02C075952C
:1008200067950A94E2F76170F60181916F01FDDD31
:10083000FFEFEF1AFF0A88E0E816F10469F7CE012E
:10084000DF91CF911F910F91FF90EF90DF90CF90AC
:1008500088CFB80184E0759567958A95E1F7CE0158
:1008600093DF6F2DCE01DF91CF911F910F91FF90FC
:10087000EF90DF90CF9088CF40E0682F89E393E03E
:10088000AECF81E0F9DF8BE39FE10197F1F70895A7
:10089000CF93DF93823029F490914803986090932E
:1008A000480380934C0310924D0380E480934E03E1
:1008B00080E180934F0380E58093500361E0809155
:1008C0003D03E3DD80913E038F3F11F061E0DDDD0C
:1008D00061E080913F03D9DDC9E3D3E09E01295354
:1008E00033408091480384FD0AC084E090E0219663
:1008F000281739073CF461E08E81C7DDEFCF88E02F
:1009000090E0F5CF8BE39DE00197F1F760E08091F7
:100910003D038BDD60E080913F0387DD80913E03E6
:100920008F3F11F060E081DD8091480384FD2CC091
:1009300063E089E393E028DFCBE4D6E4CE010197BE
:10094000F1F763E089E393E01FDF2197F1F763E0BC
:1009500089E393E019DF83E592E00197F1F762E024
:1009600089E393E011DF80914803806285DF84E0B2
:10097000809349038CE080DF84DF82E080934A0328
:1009800086E0DF91CF9178CF806276DF8BE496E4CA
:100990000197F1F78091480380626EDF83E592E072
:1009A0000197F1F780914803806266DFDCCF909178
:1009B0004C03691710F06FEF690FE62FF0E0E75C6A
:1009C000FC4F9489890F806857CF41E008DF81E0B0
:1009D00090E00895CF92DF92EF92FF9297FF16C0BA
:1009E0006B017C0141E06DE289E393E0F8DE66276C
:1009F0007727CB016C197D098E099F094AE058DEE3
:100A00000196FF90EF90DF90CF9008954AE0FF901D
:100A1000EF90DF90CF904CCEBC01990F880B990BD3
:100A2000D9CF0F931F93EFEEF1E06491E9EAF1E083
:100A3000E491F0E0EE0FFF1FE25AFE4F8591949192
:100A400000E412E42FE030E0462F57D06115710525
:100A50008105910529F06F5F7F4F8F4F9F4F9F70EA
:100A60001F910F9108951F920F920FB60F921124AC
:100A70002F933F938F939F93AF93BF9380918F0258
:100A800090919002A0919102B091920230918E02C9
:100A900023E0230F2D3758F50196A11DB11D20939A
:100AA0008E0280938F0290939002A0939102B09354
:100AB00092028091930290919402A0919502B0913C
:100AC00096020196A11DB11D80939302909394020A
:100AD000A0939502B0939602BF91AF919F918F9191
:100AE0003F912F910F900FBE0F901F90189526E801
:100AF000230F0296A11DB11DD2CFCF92DF92EF92AC
:100B0000FF920F931F93E82FF92F05C00150110991
:100B10002109310961F1908196239417B9F305C039
:100B2000015011092109310911F190819623941383
:100B3000F7CFC12CD12CE12CF12C0AC08FEFC81AB1
:100B4000D80AE80AF80A0C151D052E053F0579F0AC
:100B500080818623841791F36C2D7D2D8E2D9F2D02
:100B60001F910F91FF90EF90DF90CF90089560E07C
:100B700070E080E090E01F910F91FF90EF90DF9088
:100B8000CF900895789484B5826084BD84B58160E7
:100B900084BD85B5826085BD85B5816085BD809148
:100BA0006E00816080936E001092810080918100C0
:100BB00082608093810080918100816080938100B8
:100BC000809180008160809380008091B10084607A
:100BD0008093B1008091B00081608093B0008091DB
:100BE0009100826080939100809191008160809358
:100BF0009100809190008160809390008091A1008D
:100C000082608093A1008091A10081608093A10007
:100C10008091A00081608093A0008091210182607A
:100C20008093210180912101816080932101809135
:100C3000200181608093200180917A0084608093FC
:100C40007A0080917A00826080937A0080917A00A5
:100C5000816080937A0080917A00806880937A0026
:100C60001092C10061E08DE210DC61E08EE20DDCEB
:100C700060E08FE20ADC61E08CE207DC61E08CE19D
:100C800004DC60E08CE1D1DB60E08DE2CEDB60E093
:100C90008EE2CBDB60E08CE2C8DB61E08DE1F5DB6E
:100CA00061E08EE1F2DB61E08FE1EFDB61E080E2A9
:100CB000ECDB60E08DE1B9DB60E08EE1B6DB60E0AB
:100CC0008FE1B3DB60E080E2B0DB61E081E2DDDB9D
:100CD00061E082E2DADB61E083E2D7DB61E084E2BB
:100CE000D4DB60E081E2A1DB60E082E29EDB60E0D9
:100CF00083E29BDB60E084E298DB61E080E3C5DBBC
:100D000060E081E3C2DB82E0C3DDBBDD89E292E02B
:100D10001CDD6CE271E080E090E032DCB2DD82E369
:100D200092E013DD61E080E042DE83E492E00DDDDD
:100D3000412C512C3201439422242A94322C66E017
:100D4000862E1091990211111EC121E020933603C5
:100D500047DCC0902603D0902703E0902803F09052
:100D60002903AB01BC014C195D096E097F09809113
:100D7000320390913303B0E0A0E084179507A607F3
:100D8000B70708F0FDC0C0E080913003C81758F4E1
:100D9000E0912C03F0912D03EC0FF11D62E08081B6
:100DA00074DBCF5FF1CF00E080913103081708F0CA
:100DB0005AC0E02EF12CE0912E03F0912F03EE0D9E
:100DC000FF1D61E0808161DBE0912E03F0912F0334
:100DD000EE0DFF1D60E0808128DBD301C201002EF3
:100DE00004C0880F991FAA1FBB1F0A94D2F75C0189
:100DF0006C01C094D094912C809130039816F0F43B
:100E0000C92DD0E0E0912C03F0912D03EC0FFD1FD4
:100E10008081E1DA2496CC0FDD1FC653DD4F892B8C
:100E200041F4888199818A299B29998388839394A5
:100E3000E3CF888199818C219D21F7CFE0912E030A
:100E4000F0912F03EE0DFF1D61E08081EEDA8091BD
:100E50002E0390912F03E80EF91E60E0F7018081C8
:100E600014DB0F5FA1CFCAECD2E07E01F701878DC2
:100E700090A1892B21F4148E368E258E11A2F6E0D6
:100E8000EF0EF11C26E0E21623E0F20679F700E00F
:100E900080913003081708F051C0D12CA02EB12C3E
:100EA000AA0CBB1CA5014E525D4F5A012091310383
:100EB000D21608F041C0F501608171810D2C02C08D
:100EC000769567950A94E2F7029F900111242D0D03
:100ED000311DEAECF2E080E0458D568D2417350790
:100EE00009F4D5C48F5F36968A30B1F760FF22C00F
:100EF000EAECF2E090E080E0448D411116C0E09110
:100F00002A03F0912B03E20FF31F6081889EF0010A
:100F1000899EF00D1124E653FD4F648F368F258F87
:100F200010A2178E61E068DB05C0019636968A3004
:100F3000910511F7D394BACF0F5FAACF00E089A132
:100F40008111082F2696EC16FD06C9F749DB609340
:100F5000260370932703809328039093290300238B
:100F600079F08091EB02882359F08091E902909109
:100F7000EA02019729F41091E60210939902E1CE5A
:100F800010923603FACF812F110F990BC0979093CF
:100F900098028093970248EE53E0849F9001859FCA
:100FA000300D949F300D1124C901330FAA0BBB0BD8
:100FB00080939C0290939D02A0939E02B0939F0207
:100FC00060DC85E592E0C1DB61E080E0F0DC89E691
:100FD00092E0BBDB61E087E0EADC809197029091D0
:100FE00098021ADD64EF71E080E090E0C9DA87E3EF
:100FF0008BDA2091C4023091C502820F931F909327
:10100000A5028093A40286E37FDABC01990F880BC6
:10101000990BB6D52AEA31EF42E050E416D57DD5DA
:101020007093AD026093AC0288E36EDA9093AF02E6
:101030008093AE0289E368DABC01990F880B990BA3
:101040009FD52CE13CE741E25EE326D62AEA31EF68
:101050004EEC51E495D461D57093AB026093AA0233
:1010600060E080E3E2D983E090E00197F1F761E08E
:1010700080E3DBD983E290E00197F1F760E080E361
:10108000D4D9CFDC2AE330E040E050E08AD680912A
:10109000C4029091C502092E000CAA0BBB0B281BA1
:1010A000390B4A0B5B0B2093A6023093A7024093A7
:1010B000A8025093A902E5DB60E080E078DC80E7DD
:1010C00092E043DB60E082E072DC8091AC029091C0
:1010D000AD02A2DC60E086E06ADC83E792E035DB0B
:1010E00060E088E064DC8091AE029091AF0294DC15
:1010F00061E08CE05CDC86E792E027DB61E08EE07B
:1011000056DC8091AA029091AB0286DC61E080E01F
:101110004EDC89E792E019DB61E082E048DC8091F7
:10112000A4029091A50278DC61E086E040DC8CE7C7
:1011300092E00BDB61E088E03ADC6091A6027091FE
:10114000A7028091A8029091A90244DC6CEB72E0A6
:1011500080E090E015DA83E2282E312C9AE3492EC4
:10116000512C612C712C3CDA6B017C018091C60200
:101170009091C702A091C802B091C902A70196013F
:10118000281B390B4A0B5B0BDA01C9018C3B9240DF
:10119000A105B10508F473C3C092C602D092C7027C
:1011A000E092C802F092C90287E3AED9C091C402AE
:1011B000D091C502C80FD91FD093C302C093C202F9
:1011C00086E3A2D9BC01990F880B990BD9D42AEADE
:1011D00031EF42E050E439D44B015C016091C00230
:1011E0007091C102072E000C880B990BC9D49B018A
:1011F000AC01C501B401C4D390D44B018B017093F1
:10120000BF026093BE0288E37FD99093BD028093B2
:10121000BC0289E379D9BC01990F880B990BB0D432
:101220002CE13CE741E25EE337D52AEA31EF4EECB0
:1012300051E4A6D372D47093BB026093BA028FE2DA
:10124000CAD8E297B4F094012A5031092932310505
:1012500080F4019771F08091B6029091B702A0914D
:10126000B802B091B90284369105A105B1050CF020
:10127000D6C261E08CE2D9D861E08DE2D6D8409147
:10128000B2025091B3026091B4027091B502C601EE
:10129000841B950B9093B1028093B002D701C601D5
:1012A000841B950BA60BB70B80319742A105B105A6
:1012B00060F0C092B202D092B302E092B402F09217
:1012C000B5021092B1021092B0028091AE029091DC
:1012D000AF028D32914044F48091B0029091B102FE
:1012E00061E0893893410CF060E08EE29ED88091F5
:1012F000AC029091AD020817190769F060E082E036
:1013000056DBC40189DB8091BE029091BF029093AD
:10131000AD028093AC02C091BA02D091BB02809121
:10132000AA029091AB02C817D90769F061E08EE07C
:101330003EDBCE0171DB8091BA029091BB029093AB
:10134000AB028093AA028090B6029090B702A09060
:10135000B802B090B9028091A6029091A702A09124
:10136000A802B091A90288169906AA06BB06B1F098
:1013700061E088E01CDBC501B4012CDB8091B60282
:101380009091B702A091B802B091B9028093A602E1
:101390009093A702A093A802B093A9022091BC0247
:1013A0003091BD028091AE029091AF0228173907AB
:1013B00081F060E089E0FBDA8091BE029091BF028B
:1013C0002BDB8091BC029091BD029093AF02809381
:1013D000AE02C091C202D091C3028091A40290914A
:1013E000A502C817D90769F061E082E0E0DACE0112
:1013F00013DB8091C2029091C3029093A502809367
:10140000A4028091C2029091C302C2974CF08091D5
:10141000C4029091C502C2979093C5028093C40202
:101420008091B6029091B702A091B802B091B90232
:10143000181619061A061B0644F01092B6021092EE
:10144000B7021092B8021092B9021BDA60E080E095
:10145000AEDA80E792E079D960E082E0A8DA8091A4
:10146000AC029091AD02D8DA61E08CE0A0DA86E7B8
:1014700092E06BD961E08EE09ADA8091AA029091B5
:10148000AB02CADA60E086E092DA83E792E05DD9E7
:1014900060E088E08CDA8091AE029091AF02BCDA15
:1014A00061E080E084DA89E792E04FD961E082E090
:1014B0007EDA8091A4029091A502AEDA61E086E026
:1014C00076DA8CE792E041D961E088E070DA6091E9
:1014D000A6027091A7028091A8029091A9027ADADF
:1014E0008091B0029091B10260E0893893410CF094
:1014F0009CC18CE05CDA8FE792E027D98091BE0234
:101500009091BF0260E0843191050CF093C184E0BA
:101510004EDA89E892E019D960E080E30E94150272
:1015200083E090E00197F1F761E080E30E9415020B
:10153000C1010197F1F760E080E30E94150271DAC2
:10154000C091C402D091C502A30192012AD4CE0158
:101550000D2E000CAA0BBB0B281B390B4A0B5B0B87
:101560002093B6023093B7024093B8025093B90269
:101570008091C2029091C302843F91400CF0D4C08C
:101580008091A0029091A102A091A202B091A30229
:10159000B701A601481B590B6A0B7B0B80919C027B
:1015A00090919D02A0919E02B0919F024817590709
:1015B0006A077B0708F4B8C0C092A002D092A102CB
:1015C000E092A202F092A30261E08DE10E94150276
:1015D00060E08EE10E94150261E08FE10E94150239
:1015E00060E080E20E94150264E670E080E090E036
:1015F0000E94C00260E08DE10E94150261E08EE170
:101600000E94150261E08FE10E94150260E080E215
:101610000E94150264E670E080E090E00E94C00243
:1016200060E08DE10E94150261E08EE10E941502EA
:1016300060E08FE10E94150261E080E20E941502E5
:1016400064E670E080E090E00E94C00261E08DE11D
:101650000E94150260E08EE10E94150260E08FE1B9
:101660000E94150261E080E20E94150268EC70E0C1
:1016700080E090E00E94C002C057DE4FD093C502C8
:10168000C093C40261E08DE10E94150260E08EE12A
:101690000E94150260E08FE10E94150261E080E285
:1016A0000E94150264E670E080E090E00E94C002B3
:1016B00060E08DE10E94150261E08EE10E9415025A
:1016C00060E08FE10E94150261E080E20E94150255
:1016D00064E670E080E090E00E94C00260E08DE18E
:1016E0000E94150261E08EE10E94150261E08FE127
:1016F0000E94150260E080E20E94150264E670E03C
:1017000080E090E00E94C00261E08DE10E9415023D
:1017100060E08EE10E94150261E08FE10E941502F7
:1017200060E080E20E9415028091BE029091BF02AB
:10173000843291050CF48AC010929B0210929A0296
:10174000C0919A02D0919B02C330D1050CF097C092
:1017500061E081E20E94150260E082E20E941502CF
:1017600061E083E20E94150260E084E20E941502BB
:1017700068EC70E080E090E00E94C00260E081E2EE
:101780000E94150261E082E20E94150261E083E29C
:101790000E94150260E084E20E94150268EC70E08D
:1017A00080E090E00E94C00260E081E20E941502A9
:1017B00061E082E20E94150260E083E20E9415026D
:1017C00061E084E20E94150268EC70E080E090E045
:1017D0000E94C00261E081E20E94150260E082E2A4
:1017E0000E94150260E083E20E94150261E084E23B
:1017F0000E94150268EC70E080E090E00E94C00258
:101800008091C0029091C10202969093C102809390
:10181000C0022196D0939B02C0939A0291CF60E0C0
:101820008CE20E94150260E028CD8CE0C0D883E8ED
:1018300092E063CE84972CF084E0B9D88BE892E0F4
:101840006ACE84E0B4D880E392E065CE4497BCF4DD
:1018500061E08CE10E9415028091C0029091C1026A
:1018600006979093C1028093C00260E273E080E02B
:1018700090E00E94C00260E08CE10E94150240E00E
:1018800050E0452B09F46FCC0E9400006CCC6170D5
:101890004ACB1092CC021092D0021092CF0210923A
:1018A000D10283E292E09093CB028093CA02E6EEEB
:1018B000F2E01082148213821582369683E0E232BF
:1018C000F807B9F783E092E090932D0380932C03FF
:1018D00080E092E090932F0380932E0384E0809326
:1018E000300383E08093310387E092E090932B03F1
:1018F00080932A038AE090E090933303809332032D
:1019000084EF91E090933503809334031092380371
:101910001092370310922603109227031092280387
:10192000109229031092360310923C0310923B034D
:1019300087E192E090933A038093390386E18093A4
:101940003D038FEF80933E0387E180933F0388E15F
:101950008093400389E1809341038AE180934203AD
:101960008BE180934303109244031092450310923D
:101970004603109247031092480381E00C944804F8
:101980005058BB27AA270ED04DC13ED130F043D1CD
:1019900020F031F49F3F11F41EF433C10EF4E095B2
:1019A000E7FB29C1E92F4FD180F3BA17620773070C
:1019B0008407950718F071F49EF567C10EF4E09561
:1019C0000B2EBA2FA02D0B01B90190010C01CA01F9
:1019D000A0011124FF27591B99F0593F50F4503EA4
:1019E00068F11A16F040A22F232F342F4427585F96
:1019F000F3CF469537952795A795F0405395C9F7AE
:101A00007EF41F16BA0B620B730B840BBAF0915065
:101A1000A1F0FF0FBB1F661F771F881FC2F70EC004
:101A2000BA0F621F731F841F48F4879577956795D7
:101A3000B795F7959E3F08F0B3CF9395880F08F0C0
:101A40009927EE0F9795879508950CD0EBC0E3D0BA
:101A500040F0DAD030F021F45F3F19F0CCC05111E2
:101A600015C1CFC0F0D098F39923C9F35523B1F332
:101A7000951B550BBB27AA2762177307840738F0FD
:101A80009F5F5F4F220F331F441FAA1FA9F333D05C
:101A90000E2E3AF0E0E830D091505040E695001C10
:101AA000CAF729D0FE2F27D0660F771F881FBB1FCC
:101AB000261737074807AB07B0E809F0BB0B802DA6
:101AC000BF01FF2793585F4F2AF09E3F510568F0F2
:101AD00092C0DCC05F3FECF3983EDCF386957795CF
:101AE0006795B795F7959F5FC9F7880F911D9695F4
:101AF000879597F90895E1E0660F771F881FBB1F50
:101B0000621773078407BA0720F0621B730B840BFC
:101B1000BA0BEE1F88F7E095089504D06894B111D0
:101B2000B5C0089598D088F09F5790F0B92F9927A5
:101B3000B751A0F0D1F0660F771F881F991F1AF0D8
:101B4000BA95C9F712C0B13081F09FD0B1E00895C5
:101B50009CC0672F782F8827B85F39F0B93FCCF346
:101B6000869577956795B395D9F73EF490958095CE
:101B7000709561957F4F8F4F9F4F0895E89409C0EE
:101B800097FB3EF490958095709561957F4F8F4FB0
:101B90009F4F9923A9F0F92F96E9BB279395F695C6
:101BA000879577956795B795F111F8CFFAF4BB0F44
:101BB00011F460FF1BC06F5F7F4F8F4F9F4F16C0A8
:101BC000882311F096E911C0772321F09EE8872F32
:101BD000762F05C0662371F096E8862F70E060E0EE
:101BE0002AF09A95660F771F881FDAF7880F969567
:101BF000879597F9089597F99F6780E870E060E00E
:101C000008959FEF80EC089500240A941616170695
:101C100018060906089500240A94121613061406DD
:101C200005060895092E0394000C11F4882352F040
:101C3000BB0F40F4BF2B11F460FF04C06F5F7F4FF8
:101C40008F4F9F4F089557FD9058440F551F59F0DF
:101C50005F3F71F04795880F97FB991F61F09F3F99
:101C600079F087950895121613061406551FF2CFC2
:101C70004695F1DF08C0161617061806991FF1CF12
:101C800086957105610508940895E894BB27662739
:101C90007727CB0197F908950BD0C4CFB5DF28F093
:101CA000BADF18F0952309F0A6CFABCF1124EECF01
:101CB000CADFA0F3959FD1F3950F50E0551F629FA7
:101CC000F001729FBB27F00DB11D639FAA27F00D95
:101CD000B11DAA1F649F6627B00DA11D661F829FBC
:101CE0002227B00DA11D621F739FB00DA11D621FA1
:101CF000839FA00D611D221F749F3327A00D611DBE
:101D0000231F849F600D211D822F762F6A2F11249F
:101D10009F5750408AF0E1F088234AF0EE0FFF1FF2
:101D2000BB1F661F771F881F91505040A9F79E3F29
:101D3000510570F060CFAACF5F3FECF3983EDCF323
:101D4000869577956795B795F795E7959F5FC1F766
:101D5000FE2B880F911D9695879597F90895A1E21E
:101D60001A2EAA1BBB1BFD010DC0AA1FBB1FEE1F15
:101D7000FF1FA217B307E407F50720F0A21BB30B60
:101D8000E40BF50B661F771F881F991F1A9469F7DC
:101D900060957095809590959B01AC01BD01CF0138
:101DA0000895052E97FB16F400940FD057FD05D02B
:101DB000D6DF07FC02D046F408C050954095309518
:101DC00021953F4F4F4F5F4F0895909580957095A7
:101DD00061957F4F8F4F9F4F0895EE0FFF1F881F14
:0E1DE0008BBF0790F691E02D1994F894FFCF79
:101DEE0027262528292A2B313233343536373839F0
:101DFE002A302300000000E5045701550354030068
:101E0E00000000810242021302506F776572204F6C
:101E1E004E00456E7465722074696D6520696E742E
:101E2E00652D007276616C20622F6E20776174656D
:101E3E0072696E6700496E74657276616C732069A3
:101E4E006E207365636F6E640077617465723D001A
:101E5E00543D00493D00483D004D3D004C3D004481
:0E1E6E006179004E69676874004C00480000FE
:020000023000CC
:10E000000D9489F10D94B2F10D94B2F10D94B2F129
:10E010000D94B2F10D94B2F10D94B2F10D94B2F1F0
:10E020000D94B2F10D94B2F10D94B2F10D94B2F1E0
:10E030000D94B2F10D94B2F10D94B2F10D94B2F1D0
:10E040000D94B2F10D94B2F10D94B2F10D94B2F1C0
:10E050000D94B2F10D94B2F10D94B2F10D94B2F1B0
:10E060000D94B2F10D94B2F10D94B2F10D94B2F1A0
:10E070000D94B2F10D94B2F10D94B2F10D94B2F190
:10E080000D94B2F10D94B2F10D94B2F10D94B2F180
:10E090000D94B2F10D94B2F10D94B2F10D94B2F170
:10E0A0000D94B2F10D94B2F10D94B2F10D94B2F160
:10E0B0000D94B2F10D94B2F10D94B2F10D94B2F150
:10E0C0000D94B2F10D94B2F10D94B2F10D94B2F140
:10E0D0000D94B2F10D94B2F10D94B2F10D94B2F130
:10E0E0000D94B2F141546D656761323536300041AF
:10E0F000726475696E6F206578706C6F72657220DE
:10E1000073746B3530305632206279204D4C530099
:10E11000426F6F746C6F616465723E004875683F52
:10E1200000436F6D70696C6564206F6E203D200048
:10E130004350552054797065202020203D20005FF9
:10E140005F4156525F415243485F5F3D2000415658
:10E1500052204C696243205665723D20004743437C
:10E160002056657273696F6E203D20004350552024
:10E1700049442020202020203D20004C6F7720663D
:10E18000757365202020203D20004869676820665F
:10E190007573652020203D200045787420667573D6
:10E1A00065202020203D20004C6F636B2066757336
:10E1B000652020203D20004D617220203720323024
:10E1C000313300312E362E3800342E332E350056A2
:10E1D00023202020414444522020206F7020636F70
:10E1E00064652020202020696E73747275637469E1
:10E1F0006F6E2061646472202020496E74657272B3
:10E20000757074006E6F20766563746F7200726A49
:10E210006D702020006A6D70200057686174207056
:10E220006F72743A00506F7274206E6F7420737541
:10E2300070706F72746564004D7573742062652030
:10E2400061206C6574746572002000577269747483
:10E25000696E672045450052656164696E672045B7
:10E26000450045452065727220636E743D00504F35
:10E27000525400303D5A65726F2061646472003FF1
:10E280003D43505520737461747300403D454550C3
:10E29000524F4D207465737400423D426C696E6B41
:10E2A000204C454400453D44756D70204545505215
:10E2B0004F4D00463D44756D7020464C415348001B
:10E2C000483D48656C70004C3D4C69737420492F83
:10E2D0004F20506F72747300513D51756974005234
:10E2E0003D44756D702052414D00563D73686F7707
:10E2F00020696E7465727275707420566563746FF0
:10E30000727300593D506F727420626C696E6B00BD
:10E310002A0011241FBECFEFD1E2DEBFCDBF01E046
:10E320000CBF12E0A0E0B2E0EEE1FDEF03E00BBFB6
:10E3300002C007900D92A030B107D9F712E0A0E01B
:10E34000B2E001C01D92AE30B107E1F70F9460F367
:10E350000D948DFE01E20EBF0FEF0DBF11241FBE05
:10E360000D9460F30D9400F020E030E040ED57E0B4
:10E3700005C0FA013197F1F72F5F3F4F2817390792
:10E38000C0F308959C01260F311DC901A0E0B0E043
:10E390002F5F3F4FABBFFC018791882361F08093D3
:10E3A000C6008091C00086FFFCCF8091C0008064D1
:10E3B0008093C000EACF08958DE08093C6008091DD
:10E3C000C00086FFFCCF8091C00080648093C000B5
:10E3D0008AE08093C6008091C00086FFFCCF8091C8
:10E3E000C00080648093C00008950F94C2F10F9420
:10E3F000DCF10895FC019081992359F09093C600B7
:10E400008091C00086FFFCCF8091C0008064809323
:10E41000C0003196992379F70895282F982F929567
:10E420009F70892F805D8A3308F0895F8093C600D2
:10E430008091C00086FFFCCF8091C00080648093F3
:10E44000C000822F8F70982F905D9A3308F0995FEB
:10E450009093C6008091C00086FFFCCF8091C000E1
:10E4600080648093C00008959C01FB01853691056E
:10E470001CF46330710594F0C90164E670E00F94F8
:10E480002EFE605D7F4F6093C6008091C00086FFC6
:10E49000FCCF8091C00080648093C0002B30310598
:10E4A00014F43297B4F0C90164E670E00F942EFEC4
:10E4B0006AE070E00F942EFE605D7F4F6093C600AF
:10E4C0008091C00086FFFCCF8091C0008064809363
:10E4D000C000C9016AE070E00F942EFEC0968093E0
:10E4E000C6008091C00086FFFCCF8091C000806490
:10E4F0008093C00008951F93182F8EE692EE60E07F
:10E500000F94C2F11093C6008091C00086FFFCCF2B
:10E510008091C00080648093C0000F94DCF11F9153
:10E5200008952F923F924F925F926F927F928F92B7
:10E530009F92AF92BF92CF92DF92EF92FF920F9392
:10E540001F93DF93CF93CDB7DEB762970FB6F894E2
:10E55000DEBF0FBECDBF382E622ECA01DB015C01CB
:10E560006D01772420E2222E2E010894411C511CBB
:10E570008BC081E0A81680E0B80681E0C80680E084
:10E58000D80628F0C601AA27BB270F940DF2BB2797
:10E59000AD2D9C2D8B2D0F940DF28A2D0F940DF225
:10E5A0002092C6008091C00086FFFCCF8091C00001
:10E5B00080648093C0009DE29093C6008091C0006B
:10E5C00086FFFCCF8091C00080648093C0002092C1
:10E5D000C6008091C00086FFFCCF8091C00080649F
:10E5E0008093C00019828601750188249924A1E0D6
:10E5F0003A1651F03A1620F0B2E03B1661F409C029
:10E600000BBFF701779007C0C7010F9477FE782EF4
:10E6100002C0F7017080872D0F940DF22092C60082
:10E620008091C00086FFFCCF8091C0008064809301
:10E63000C000872D8052F401EF70F0708F3520F408
:10E64000E40DF51D708204C0E40DF51D8EE280839B
:10E650000894E11CF11C011D111D0894811C911CE2
:10E6600090E18916910409F0C2CF80E190E0A0E02A
:10E67000B0E0A80EB91ECA1EDB1E198AC2010F9493
:10E68000FAF10F94DCF16A94662009F072CF629679
:10E690000FB6F894DEBF0FBECDBFCF91DF911F91B3
:10E6A0000F91FF90EF90DF90CF90BF90AF909F9031
:10E6B0008F907F906F905F904F903F902F90089534
:10E6C0002F923F924F925F926F927F928F929F9282
:10E6D000AF92BF92CF92DF92EF92FF920F931F9370
:10E6E000DF93CF93CDB7DEB7CD53D1400FB6F894BB
:10E6F000DEBF0FBECDBF01E20EBF0FEF0DBF94B75F
:10E70000F894A89514BE80916000886180936000A1
:10E7100010926000789493FF05C0E0910002F091A0
:10E7200001021995279A2F9A8091C00082608093E8
:10E73000C00080E18093C40088E18093C1000000A4
:10E74000EE24FF24870144E0A42EB12CCC24DD2448
:10E7500024C0C5010197F1F70894E11CF11C011DCB
:10E76000111D21E2E2162EE4F20620E0020720E06D
:10E77000120718F031E0C32ED12CC801B70127ECE5
:10E780003BE140E050E00F9441FE611571058105C9
:10E79000910519F485B1805885B98091C00087FD35
:10E7A00003C0C114D104A9F2A6014F5F5F4FC25E3E
:10E7B000DE4F59834883CE51D140C25EDE4F8881FF
:10E7C0009981CE51D140019711F00D9410FEC05D9A
:10E7D000DE4F19821882C053D14060E0C15DDE4F28
:10E7E0001882CF52D14088249924C35DDE4F19820C
:10E7F0001882CD52D140C05EDE4F188219821A8233
:10E800001B82C052D140CE5CDE4F188219821A8220
:10E810001B82C253D140EE24FF2487010BBFF701B6
:10E8200007911691C45CDE4F19830883CC53D14005
:10E830000D940BFEC25EDE4F28813981CE51D1404E
:10E840002130310509F52091C600C25EDE4F1982E4
:10E850001882CE51D14022C02F5F3F4F4F4F5F4FA4
:10E86000213082E138078AE7480780E0580780F0C6
:10E87000C45CDE4FE881F981CC53D140EF5FFF4F9C
:10E8800019F0EE27FF27099420E030E040E050E047
:10E890008091C00087FFE0CF2091C600C35DDE4FAE
:10E8A00048815981CD52D1404F5F5F4FC35DDE4FEC
:10E8B00059834883CD52D140213209F063C64A3092
:10E8C000510508F05FC60894811C911C53E0851621
:10E8D000910409F059C600E010E018C081E280936D
:10E8E000C6008091C00086FFFCCF8091C00080648C
:10E8F0008093C0002F5F3F4F2931310579F70F9486
:10E90000DCF10F5F1F4F0530110519F020E030E0FA
:10E91000E5CF10920A0210920B0210920C02109294
:10E920000D02109206021092070210920802109235
:10E930000902109202021092030210920402109235
:10E9400005028FEE90EE60E00F94F5F180E191EE1C
:10E9500060E00F94C2F18091C00087FFFCCF9091DE
:10E96000C600903608F09F759032B8F09093C600BC
:10E970008091C00086FFFCCF8091C00080648093AE
:10E98000C000A0E2A093C6008091C00086FFFCCF2B
:10E990008091C00080648093C000983409F4D7C18E
:10E9A0009934B8F4923409F459C1933458F490333B
:10E9B00019F1903308F4E3C59F33A1F1903409F0C5
:10E9C000DEC5BDC0953409F470C1963409F0D7C5D1
:10E9D00098C1923509F42BC2933538F49C3409F46C
:10E9E000F5C1913509F0CBC518C2963509F445C279
:10E9F000993509F0C4C567C483E792EE62E00F94CD
:10EA0000F5F110920602109207021092080210927D
:10EA1000090210920A0210920B0210920C0210923C
:10EA20000D0213C18FE792EE62E00F94F5F18FEEC5
:10EA300090EE60E00F94F5F181E291EE60E00F94CA
:10EA4000C2F187EB91EE60E00F94F5F180E391EE77
:10EA500060E00F94C2F184EE90EE60E00F94F5F167
:10EA60008FE391EE60E00F94C2F186E090E061E008
:10EA700070E00F9434F20F94DCF18DE591EE60E0DC
:10EA80000F94C2F189EC91EE60E00F94F5F18EE401
:10EA900091EE60E00F94C2F183EC91EE60E00F9490
:10EAA000F5F18CE691EE60E00F94C2F18EE10F94E7
:10EAB0000DF288E90F940DF281E00F940DF20F949E
:10EAC000DCF18BE791EE60E00F94C2F119E0E0E039
:10EAD000F0E010935700E4918E2F0F940DF20F94F5
:10EAE000DCF18AE891EE60E00F94C2F1E3E0F0E03F
:10EAF00010935700E4918E2F0F940DF20F94DCF1D8
:10EB000089E991EE60E00F94C2F1E2E0F0E0109349
:10EB10005700E4918E2F0F940DF20F94DCF188EAE8
:10EB200091EE60E00F94C2F1E1E0F0E01093570045
:10EB30001491812F0F940DF20F94DCF107CF8BE825
:10EB400092EE62E00F94F5F18BE492EE60E00F94A8
:10EB5000F5F10F94DCF100E010E019C0C8016F2D51
:10EB60000F947FFEFF2031F489E492EE60E00F9471
:10EB7000C2F10BC0F092C6008091C00086FFFCCFAE
:10EB80008091C00080648093C0000F5F1F4FC80158
:10EB900081519F41A0E0B0E0ABBFFC01F790BAE229
:10EBA000FB1621F0E2E000301E07C1F60F94DCF105
:10EBB0000F94DCF187E592EE60E00F94F5F10F948D
:10EBC000DCF1CC24DD2400E010E01EC0C8010F946D
:10EBD00077FEF82E882331F489E492EE60E00F94FA
:10EBE000C2F10BC08093C6008091C00086FFFCCFAD
:10EBF0008091C00080648093C000FE1419F00894D6
:10EC0000C11CD11C0F5F1F4FC80181519F41A0E063
:10EC1000B0E0ABBFFC01E790FAE2EF1621F022E092
:10EC20000030120799F60F94DCF10F94DCF182E6C4
:10EC300092EE60E00F94C2F1C60161E070E00F94C3
:10EC400034F20F94DCF10F94DCF110920202109276
:10EC50000302109204021092050278CE89E992EE26
:10EC600062E00F94F5F1279A2F9A16C02F9880E052
:10EC700090E0E0EDF7E03197F1F7019684369105E9
:10EC8000C1F72F9A80E090E0E0EDF7E03197F1F7DF
:10EC9000019684369105C1F78091C00087FFE6CFC9
:10ECA0008091C00087FFFCCF64C485EA92EE62E0E9
:10ECB0000F94F5F140910202509103026091040219
:10ECC0007091050281E020E10F9491F2809102029F
:10ECD00090910302A0910402B091050280509F4FD1
:10ECE000AF4FBF4F8093020290930302A0930402A0
:10ECF000B093050280509041A040B04008F426CE69
:10ED0000A4CF83EB92EE62E00F94F5F140910602FE
:10ED100050910702609108027091090280E020E1A1
:10ED20000F9491F28091060290910702A09108023F
:10ED3000B091090280509F4FAF4FBF4F80930602A2
:10ED400090930702A0930802B0930902FFCD80ECD4
:10ED500092EE62E00F94F5F183E792EE60E00F949B
:10ED6000F5F18FE792EE60E00F94F5F18BE892EE0B
:10ED700060E00F94F5F189E992EE60E00F94F5F10F
:10ED800085EA92EE60E00F94F5F183EB92EE60E09D
:10ED90000F94F5F180EC92EE60E00F94F5F187ECC2
:10EDA00092EE60E00F94F5F188ED92EE60E00F9442
:10EDB000F5F18FED92EE60E00F94F5F18AEE92EEB0
:10EDC00060E00F94F5F183E093EEBDCD87EC92EE19
:10EDD00062E00F94F5F181E40F947BF282E40F94EA
:10EDE0007BF283E40F947BF284E40F947BF285E45E
:10EDF0000F947BF286E40F947BF287E40F947BF20E
:10EE000088E40F947BF28AE40F947BF28BE40F94F6
:10EE10007BF28CE40F947BF299CD88ED92EE62E068
:10EE20000F94F5F1772473948824992409C48FED05
:10EE300092EE62E00F94F5F140910A0250910B02BC
:10EE400060910C0270910D0282E020E10F9491F22A
:10EE500080910A0290910B02A0910C02B0910D02D8
:10EE600080509F4FAF4FBF4F80930A0290930B0289
:10EE7000A0930C02B0930D0269CD8AEE92EE62E08F
:10EE80000F94F5F184EE90EE60E00F94F5F18FECC5
:10EE900091EE60E00F94F5F1662477244301CC5D98
:10EEA000DE4F19821882C452D140D401C301B695F5
:10EEB000A79597958795CA5DDE4F88839983AA8326
:10EEC000BB83C652D140CC5DDE4FA881B981C4520C
:10EED000D1401196CC5DDE4FB983A883C452D14096
:10EEE000CD0162E070E00F9434F2B0E2B093C6005E
:10EEF0008091C00086FFFCCF8091C0008064809329
:10EF0000C000EDE2E093C6008091C00086FFFCCF18
:10EF10008091C00080648093C000F0E2F093C6004E
:10EF20008091C00086FFFCCF8091C00080648093F8
:10EF3000C000CA5DDE4FE880F9800A811B81C6529D
:10EF4000D140BB27A12F902F8F2D0F940DF2CA5DBA
:10EF5000DE4F8881C652D1400F940DF2B0E2FB2EF5
:10EF6000F092C6008091C00086FFFCCF8091C00067
:10EF700080648093C0000DE30093C6008091C000C0
:10EF800086FFFCCF8091C00080648093C00010E2B7
:10EF90001093C6008091C00086FFFCCF8091C00016
:10EFA00080648093C0008BBEF3012791C65DDE4F65
:10EFB0002883CA52D140A22EBB24CC24DD2408943D
:10EFC000611C711C811C911C8BBEF3018791282E42
:10EFD0003324442455240894611C711C811C911C09
:10EFE0008BBEF3013791C55DDE4F3883CB52D140E4
:10EFF0000894611C711C811C911C8BBEF30147910C
:10F00000C45DDE4F4883CC52D140ADEFEA2EAFEF66
:10F01000FA2EAFEF0A2FAFEF1A2F6E0C7F1C801E57
:10F02000911E142D032DF22CEE24EA0CFB1C0C1D5A
:10F030001D1D0F940DF220E22093C6008091C000A8
:10F0400086FFFCCF8091C00080648093C000C65DC5
:10F05000DE4F8881CA52D1400F940DF230E23093D6
:10F06000C6008091C00086FFFCCF8091C000806404
:10F070008093C000C45DDE4F8881CC52D1400F9494
:10F080000DF240E24093C6008091C00086FFFCCFA5
:10F090008091C00080648093C000C55DDE4F888190
:10F0A000CB52D1400F940DF250E25093C6008091A4
:10F0B000C00086FFFCCF8091C00080648093C000B8
:10F0C0008FEFE8168FEFF80680E0080780E018075A
:10F0D00031F484E092EE60E00F94C2F1DFC0D80119
:10F0E000C7018070907CA070B0708050904CA040A0
:10F0F000B040D1F52FEF3FE340E050E0E222F322B1
:10F1000004231523CA5DDE4FA880B980CA80DB8046
:10F11000C652D140AE0CBF1CC01ED11EAA0CBB1CD7
:10F12000CC1CDD1C8EE092EE60E00F94C2F1BB2798
:10F13000A12F902F8F2D0F940DF28E2D0F940DF285
:10F1400030E23093C6008091C00086FFFCCF8091F2
:10F15000C00080648093C0004EE34093C60080915D
:10F16000C00086FFFCCF87C08EE09EEFA0E0B0E03D
:10F17000E822F9220A231B239CE0E91694E9F90608
:10F1800090E0090790E0190709F088C0C45DDE4FE0
:10F19000A881CC52D140EA2EFF2400E010E0102FCD
:10F1A0000F2DFE2CEE24C55DDE4FB881CB52D14031
:10F1B000EB0EF11C011D111DD601C501817090706F
:10F1C000A070B070DC0199278827E80EF91E0A1F8D
:10F1D0001B1F20EF30E040E050E0A222B322C42207
:10F1E000D52241E1AA0CBB1CCC1CDD1C4A95D1F7F1
:10F1F000EA0CFB1C0C1D1D1D81E090E0A0E0B0E0BE
:10F20000282239224A225B2235E1220C331C441C7D
:10F21000551C3A95D1F7E20CF31C041D151D57013E
:10F220006801AA0CBB1CCC1CDD1C85E192EE60E0E1
:10F230000F94C2F1C801AA27BB270F940DF2BB2778
:10F24000A12F902F8F2D0F940DF28E2D0F940DF274
:10F2500090E29093C6008091C00086FFFCCF809121
:10F26000C00080648093C000AEE3A093C60080918C
:10F27000C00086FFFCCF8091C00080648093C000F6
:10F28000C601AA27BB270F940DF2BB27AD2D9C2DDD
:10F290008B2D0F940DF28A2D0F940DF20F94DCF14B
:10F2A000CC5DDE4FE881F981C452D140F99709F471
:10F2B0004DCBF4E0EF2EF12C012D112D6E0C7F1CA7
:10F2C000801E911EF2CD83E093EE62E00F94F5F183
:10F2D0008AE192EE60E00F94C2F18091C00087FF56
:10F2E000FCCF1091C6001F751093C6008091C0001E
:10F2F00086FFFCCF8091C00080648093C0000F9493
:10F30000DCF1812F81548A3108F036C1163409F4BA
:10F3100095C0173490F4133409F44EC0143430F40B
:10F320001134F1F0123409F01DC130C0143409F465
:10F3300059C0153409F016C16BC01A3409F4C4C0A1
:10F340001B3438F4173409F48FC0183409F00AC19B
:10F35000A1C01B3409F4D2C01C3409F003C1E8C0B9
:10F360008FEF81B90DC082B1809582B980E090E0C5
:10F37000E0EDF7E03197F1F70196883C9105C1F790
:10F380008091C00087FFEFCF12B8EFC08FEF84B934
:10F390000DC085B1809585B980E090E0E0EDF7E0A3
:10F3A0003197F1F70196883C9105C1F78091C00033
:10F3B00087FFEFCF15B8D9C08FEF87B90DC088B1DF
:10F3C000809588B980E090E0E0EDF7E03197F1F7C3
:10F3D0000196883C9105C1F78091C00087FFEFCF6F
:10F3E00018B8C3C08FEF8AB90DC08BB180958BB9A7
:10F3F00080E090E0E0EDF7E03197F1F70196883C8E
:10F400009105C1F78091C00087FFEFCF1BB8ADC059
:10F410008FEF8DB90DC08EB180958EB980E090E0F0
:10F42000E0EDF7E03197F1F70196883C9105C1F7DF
:10F430008091C00087FFEFCF1EB897C08FEF80BBD1
:10F440000DC081B3809581BB80E090E0E0EDF7E0F6
:10F450003197F1F70196883C9105C1F78091C00082
:10F4600087FFEFCF11BA81C08FEF83BB0DC084B38C
:10F47000809584BB80E090E0E0EDF7E03197F1F714
:10F480000196883C9105C1F78091C00087FFEFCFBE
:10F4900014BA6BC08FEF809301010FC080910201FD
:10F4A00080958093020180E090E0E0EDF7E03197F5
:10F4B000F1F70196883C9105C1F78091C00087FF64
:10F4C000EDCF1092020151C08FEF809304010FC065
:10F4D0008091050180958093050180E090E0E0ED4A
:10F4E000F7E03197F1F70196883C9105C1F78091DB
:10F4F000C00087FFEDCF1092050137C08FEF8093DA
:10F5000007010FC08091080180958093080180E079
:10F5100090E0E0EDF7E03197F1F70196883C910536
:10F52000C1F78091C00087FFEDCF109208011DC088
:10F530008FEF80930A010FC080910B01809580931B
:10F540000B0180E090E0E0EDF7E03197F1F70196F4
:10F55000883C9105C1F78091C00087FFEDCF1092E4
:10F560000B0103C085E292EEEEC98091C00087FFD7
:10F57000FCCF8091C600EAC988E392EEE4C98CE131
:10F5800091EEE1C988249924933011F1943028F444
:10F59000913089F09230B8F408C0953061F195301F
:10F5A000F0F0963009F048C043C02B3109F042C951
:10F5B00091E06BE13FC96227C15DDE4F2883CF52E6
:10F5C000D14092E037C9B22FA0E0622793E032C960
:10F5D000822F90E0A82BB92B622794E02BC92E3004
:10F5E00009F039C3622795E0C05DDE4F19821882A9
:10F5F000C053D1401FC9E1E0F0E0EC0FFD1FC05D3A
:10F60000DE4F08811981C053D140E00FF11F2083E4
:10F610000F5F1F4FC05DDE4F19830883C053D14079
:10F6200062270A171B0709F005C9D80196E002C92D
:10F63000261709F010C303C0973009F0FBC87724E0
:10F640009981933109F412C19431C8F4963009F4C8
:10F65000D8C0973050F4923009F406C1933009F4C1
:10F660006DC0913009F059C253C0913109F477C08F
:10F67000923108F0BBC0903109F04FC2F5C098310B
:10F6800009F487C0993150F4953109F4EFC09531F0
:10F6900008F4C6C1963109F040C2C2C19A3109F4DA
:10F6A0006CC09A3108F491C09B3109F45BC09D3164
:10F6B00009F033C29D81903359F48F81882311F46E
:10F6C0009EE11CC0813011F091E018C098E916C08D
:10F6D000892F807591F0903539F4E0E0F0E089E011
:10F6E0008093570094910AC0983539F4E3E0F0E034
:10F6F00089E080935700949101C090E01A821B82A8
:10F700008D818C831D829E831F8227E030E009C299
:10F710001A8288E08B8381E48C8386E58D8382E581
:10F720008E8389E48F8383E5888780E589878FE5E9
:10F730008A8782E38B872BE030E0F3C18A818139AD
:10F7400041F0823941F0803911F48FE005C080E04A
:10F7500003C082E001C08AE01A828B8344C0772410
:10F76000739482C08D81882311F48EE12CC0813086
:10F7700011F081E028C088E926C01A82E1E0F0E0BB
:10F7800089E08093570084918B831C8224E030E0D1
:10F79000C8C18B81803589F48C81883039F4E2E0EE
:10F7A000F0E089E08093570084910DC0E0E0F0E044
:10F7B00089E080935700849106C0E3E0F0E089E09F
:10F7C0008093570084911A82DFCF8D81836C99E0FA
:10F7D000E1E0F0E0082E90935700E89507B600FCB2
:10F7E000FDCF1A821B8223E030E09BC180EC8A832C
:10F7F000CE5CDE4F188219821A821B82C253D1401E
:10F800008EC18A8190E0A0E0B0E0582F44273327D2
:10F8100022278B8190E0A0E0B0E0DC0199278827C7
:10F82000282B392B4A2B5B2B8D8190E0A0E0B0E098
:10F83000282B392B4A2B5B2B8C8190E0A0E0B0E089
:10F84000BA2FA92F982F8827282B392B4A2B5B2BCF
:10F85000220F331F441F551FC05EDE4F288339839C
:10F860004A835B83C052D1401A8259C13A81C95C34
:10F87000DE4F3883C753D140CA5CDE4F1882C6536F
:10F88000D1408B81C82EDD24CA5CDE4F488159816E
:10F89000C653D140C42AD52A933109F082C0CE5C28
:10F8A000DE4F88819981AA81BB81C253D1408050AB
:10F8B000904CA340B04030F583E0CE5CDE4FE88052
:10F8C000F9800A811B81C253D140F70100935B008C
:10F8D00080935700E89507B600FCFDCFCE5CDE4F65
:10F8E000088119812A813B81C253D14000501F4FAA
:10F8F0002F4F3F4FCE5CDE4F088319832A833B8313
:10F90000C253D140C05EDE4F488159816A817B81FC
:10F91000C052D140DE011B9631E08C9111962C91A2
:10F9200011971296C75CDE4F2883C953D140C85C3B
:10F93000DE4F1882C853D14090E0C85CDE4FE881AA
:10F94000F981C853D1408E2B9F2B0C01FA01609393
:10F950005B0030935700E89511244E5F5F4F6F4F67
:10F960007F4F0EEFE02E0FEFF02ECE0CDF1CC114F8
:10F97000D10499F685E0C05EDE4F088119812A81A5
:10F980003B81C052D140F80120935B008093570027
:10F99000E89507B600FCFDCF81E180935700E8951C
:10F9A00035C0C05EDE4F88819981AA81BB81C0527B
:10F9B000D140B695A795979587957C018601ABE0D8
:10F9C000AA2EB12CAC0EBD1E0BC0D5016D915D01F0
:10F9D000C7010F947FFE0894E11CF11C01501040F8
:10F9E0000115110591F7A60160E070E0440F551F65
:10F9F000661F771FC05EDE4FE880F9800A811B8199
:10FA0000C052D1404E0D5F1D601F711F1A82C05E33
:10FA1000DE4F488359836A837B83C052D1407FC0C5
:10FA2000FA80C55CDE4FF882CB53D140C65CDE4F16
:10FA30001882CA53D1408B81C82EDD24C65CDE4FAC
:10FA400008811981CA53D140C02AD12A1A828981DA
:10FA5000BE016D5F7F4F843121F59601C05EDE4FA0
:10FA6000E880F9800A811B81C052D1400BBFF701A9
:10FA700087919691DB018C9311969C936E5F7F4FDB
:10FA8000D801C7010296A11DB11DC05EDE4F88835B
:10FA90009983AA83BB83C052D14022503040F1F6F3
:10FAA00036C0C05EDE4F288139814A815B81C052F9
:10FAB000D1400894C108D108760100E010E0089414
:10FAC000C11CD11C0894E11CF11C011D111DE20E8A
:10FAD000F31E041F151F21BDBB27A52F942F832FB5
:10FAE00082BD2F5F3F4F4F4F5F4FF89A80B5DB01CC
:10FAF0008D93BD012E153F054007510761F7C05E8C
:10FB0000DE4F288339834A835B83C052D1409601FC
:10FB10002D5F3F4FFB01108204C080EC8A8322E0FE
:10FB200030E08BE18093C6008091C00086FFFCCF5F
:10FB30008091C00080648093C000C15DDE4FF88179
:10FB4000CF52D140F093C6008091C00086FFFCCF19
:10FB50008091C00080648093C000432F3093C60022
:10FB60008091C00086FFFCCF8091C00080648093AC
:10FB7000C000922F2093C6008091C00086FFFCCF6A
:10FB80008091C00080648093C0008EE08093C600A6
:10FB90008091C00086FFFCCF8091C000806480937C
:10FBA000C00065E1C15DDE4FE880CF52D1406E25D7
:10FBB00069276427FE01319610C090819093C6009A
:10FBC0008091C00086FFFCCF31968091C000806498
:10FBD0008093C0006927215030402115310569F715
:10FBE0006093C6008091C00086FFFCCF8091C0006A
:10FBF00080648093C00085B1805885B9772081F4F6
:10FC0000C15DDE4F0881CF52D1400F5FC15DDE4F35
:10FC10000883CF52D14090E0A0E0B0E00D941AF4F8
:10FC200027982F9880E090E020ED37E0F901319798
:10FC3000F1F7019684369105C9F700008091C00064
:10FC40008D7F8093C00081E180935700E895EE2777
:10FC5000FF270994FFCF90E00D941AF497FB092E2B
:10FC600007260AD077FD04D02ED006D000201AF443
:10FC7000709561957F4F0895F6F7909581959F4F08
:10FC80000895A1E21A2EAA1BBB1BFD010DC0AA1FDD
:10FC9000BB1FEE1FFF1FA217B307E407F50720F0F5
:10FCA000A21BB30BE40BF50B661F771F881F991F70
:10FCB0001A9469F760957095809590959B01AC01B9
:10FCC000BD01CF010895AA1BBB1B51E107C0AA1FAC
:10FCD000BB1FA617B70710F0A61BB70B881F991FED
:10FCE0005A95A9F780959095BC01CD010895F99991
:10FCF000FECF92BD81BDF89A992780B50895262F31
:10FD0000F999FECF1FBA92BD81BD20BD0FB6F89400
:0EFD1000FA9AF99A0FBE01960895F894FFCF63
:040000033000E000E9
:00000001FF
